{
  "contractName": "Roulette",
  "abi": [
    {
      "constant": true,
      "inputs": [],
      "name": "MinDeposit",
      "outputs": [
        {
          "name": "",
          "type": "uint256"
        }
      ],
      "payable": false,
      "stateMutability": "view",
      "type": "function",
      "signature": "0x11bcd830"
    },
    {
      "constant": true,
      "inputs": [
        {
          "name": "",
          "type": "uint256"
        }
      ],
      "name": "gamblerlist",
      "outputs": [
        {
          "name": "etherAddress",
          "type": "address"
        },
        {
          "name": "amount",
          "type": "uint256"
        }
      ],
      "payable": false,
      "stateMutability": "view",
      "type": "function",
      "signature": "0x148bea6b"
    },
    {
      "constant": true,
      "inputs": [],
      "name": "Gamblers_Until_Jackpot",
      "outputs": [
        {
          "name": "",
          "type": "uint256"
        }
      ],
      "payable": false,
      "stateMutability": "view",
      "type": "function",
      "signature": "0x3f1887e9"
    },
    {
      "constant": true,
      "inputs": [
        {
          "name": "",
          "type": "uint256"
        }
      ],
      "name": "options",
      "outputs": [
        {
          "name": "",
          "type": "string"
        }
      ],
      "payable": false,
      "stateMutability": "view",
      "type": "function",
      "signature": "0x409e2205"
    },
    {
      "constant": true,
      "inputs": [],
      "name": "Jackpot",
      "outputs": [
        {
          "name": "",
          "type": "uint256"
        }
      ],
      "payable": false,
      "stateMutability": "view",
      "type": "function",
      "signature": "0x5e377b51"
    },
    {
      "constant": true,
      "inputs": [],
      "name": "Total_Payouts",
      "outputs": [
        {
          "name": "",
          "type": "uint256"
        }
      ],
      "payable": false,
      "stateMutability": "view",
      "type": "function",
      "signature": "0x8a3a84a8"
    },
    {
      "constant": true,
      "inputs": [],
      "name": "owner",
      "outputs": [
        {
          "name": "",
          "type": "address"
        }
      ],
      "payable": false,
      "stateMutability": "view",
      "type": "function",
      "signature": "0x8da5cb5b"
    },
    {
      "constant": true,
      "inputs": [],
      "name": "FeeRate",
      "outputs": [
        {
          "name": "",
          "type": "uint256"
        }
      ],
      "payable": false,
      "stateMutability": "view",
      "type": "function",
      "signature": "0xabe2a16e"
    },
    {
      "constant": true,
      "inputs": [],
      "name": "Total_Deposits",
      "outputs": [
        {
          "name": "",
          "type": "uint256"
        }
      ],
      "payable": false,
      "stateMutability": "view",
      "type": "function",
      "signature": "0xb034d5aa"
    },
    {
      "constant": true,
      "inputs": [],
      "name": "Bankroll",
      "outputs": [
        {
          "name": "",
          "type": "uint256"
        }
      ],
      "payable": false,
      "stateMutability": "view",
      "type": "function",
      "signature": "0xd0bcfc0c"
    },
    {
      "constant": true,
      "inputs": [],
      "name": "Total_Gamblers",
      "outputs": [
        {
          "name": "",
          "type": "uint256"
        }
      ],
      "payable": false,
      "stateMutability": "view",
      "type": "function",
      "signature": "0xfd330b26"
    },
    {
      "inputs": [],
      "payable": false,
      "stateMutability": "nonpayable",
      "type": "constructor",
      "signature": "constructor"
    },
    {
      "constant": false,
      "inputs": [
        {
          "name": "_b",
          "type": "bytes"
        }
      ],
      "name": "bytesToUInt",
      "outputs": [
        {
          "name": "",
          "type": "uint256"
        }
      ],
      "payable": false,
      "stateMutability": "nonpayable",
      "type": "function",
      "signature": "0x74c1328a"
    },
    {
      "constant": true,
      "inputs": [],
      "name": "random",
      "outputs": [
        {
          "name": "",
          "type": "uint256"
        }
      ],
      "payable": false,
      "stateMutability": "view",
      "type": "function",
      "signature": "0x5ec01e4d"
    },
    {
      "constant": true,
      "inputs": [
        {
          "name": "x",
          "type": "uint256"
        }
      ],
      "name": "toBytes",
      "outputs": [
        {
          "name": "b",
          "type": "bytes"
        }
      ],
      "payable": false,
      "stateMutability": "pure",
      "type": "function",
      "signature": "0x775a8f5e"
    },
    {
      "constant": true,
      "inputs": [],
      "name": "spin",
      "outputs": [
        {
          "name": "",
          "type": "uint256"
        }
      ],
      "payable": false,
      "stateMutability": "view",
      "type": "function",
      "signature": "0xf0acd7d5"
    },
    {
      "constant": false,
      "inputs": [],
      "name": "enter",
      "outputs": [],
      "payable": true,
      "stateMutability": "payable",
      "type": "function",
      "signature": "0xe97dcb62"
    },
    {
      "constant": false,
      "inputs": [
        {
          "name": "new_owner",
          "type": "address"
        }
      ],
      "name": "setOwner",
      "outputs": [],
      "payable": false,
      "stateMutability": "nonpayable",
      "type": "function",
      "signature": "0x13af4035"
    },
    {
      "constant": false,
      "inputs": [
        {
          "name": "new_mindeposit",
          "type": "uint256"
        }
      ],
      "name": "setMinDeposit",
      "outputs": [],
      "payable": false,
      "stateMutability": "nonpayable",
      "type": "function",
      "signature": "0x8fcc9cfb"
    },
    {
      "constant": false,
      "inputs": [
        {
          "name": "new_feerate",
          "type": "uint256"
        }
      ],
      "name": "setFeeRate",
      "outputs": [],
      "payable": false,
      "stateMutability": "nonpayable",
      "type": "function",
      "signature": "0x45596e2e"
    }
  ],
  "bytecode": "0x60806040526104a0604051908101604052806040805190810160405280600181526020017f300000000000000000000000000000000000000000000000000000000000000081525081526020016040805190810160405280600281526020017f333200000000000000000000000000000000000000000000000000000000000081525081526020016040805190810160405280600281526020017f313500000000000000000000000000000000000000000000000000000000000081525081526020016040805190810160405280600281526020017f313900000000000000000000000000000000000000000000000000000000000081525081526020016040805190810160405280600181526020017f340000000000000000000000000000000000000000000000000000000000000081525081526020016040805190810160405280600281526020017f323100000000000000000000000000000000000000000000000000000000000081525081526020016040805190810160405280600181526020017f320000000000000000000000000000000000000000000000000000000000000081525081526020016040805190810160405280600281526020017f323500000000000000000000000000000000000000000000000000000000000081525081526020016040805190810160405280600281526020017f313700000000000000000000000000000000000000000000000000000000000081525081526020016040805190810160405280600281526020017f333400000000000000000000000000000000000000000000000000000000000081525081526020016040805190810160405280600181526020017f360000000000000000000000000000000000000000000000000000000000000081525081526020016040805190810160405280600281526020017f323700000000000000000000000000000000000000000000000000000000000081525081526020016040805190810160405280600281526020017f313300000000000000000000000000000000000000000000000000000000000081525081526020016040805190810160405280600281526020017f333600000000000000000000000000000000000000000000000000000000000081525081526020016040805190810160405280600281526020017f313100000000000000000000000000000000000000000000000000000000000081525081526020016040805190810160405280600281526020017f333000000000000000000000000000000000000000000000000000000000000081525081526020016040805190810160405280600181526020017f380000000000000000000000000000000000000000000000000000000000000081525081526020016040805190810160405280600281526020017f323300000000000000000000000000000000000000000000000000000000000081525081526020016040805190810160405280600281526020017f313000000000000000000000000000000000000000000000000000000000000081525081526020016040805190810160405280600181526020017f350000000000000000000000000000000000000000000000000000000000000081525081526020016040805190810160405280600281526020017f323400000000000000000000000000000000000000000000000000000000000081525081526020016040805190810160405280600281526020017f313600000000000000000000000000000000000000000000000000000000000081525081526020016040805190810160405280600281526020017f333300000000000000000000000000000000000000000000000000000000000081525081526020016040805190810160405280600181526020017f310000000000000000000000000000000000000000000000000000000000000081525081526020016040805190810160405280600281526020017f323000000000000000000000000000000000000000000000000000000000000081525081526020016040805190810160405280600281526020017f313400000000000000000000000000000000000000000000000000000000000081525081526020016040805190810160405280600281526020017f333100000000000000000000000000000000000000000000000000000000000081525081526020016040805190810160405280600181526020017f390000000000000000000000000000000000000000000000000000000000000081525081526020016040805190810160405280600281526020017f323200000000000000000000000000000000000000000000000000000000000081525081526020016040805190810160405280600281526020017f313800000000000000000000000000000000000000000000000000000000000081525081526020016040805190810160405280600281526020017f323900000000000000000000000000000000000000000000000000000000000081525081526020016040805190810160405280600181526020017f370000000000000000000000000000000000000000000000000000000000000081525081526020016040805190810160405280600281526020017f323800000000000000000000000000000000000000000000000000000000000081525081526020016040805190810160405280600281526020017f313200000000000000000000000000000000000000000000000000000000000081525081526020016040805190810160405280600281526020017f333500000000000000000000000000000000000000000000000000000000000081525081526020016040805190810160405280600181526020017f330000000000000000000000000000000000000000000000000000000000000081525081526020016040805190810160405280600281526020017f32360000000000000000000000000000000000000000000000000000000000008152508152506001906025620008a892919062000931565b506000602755600060285560056029556000602a556000602b556000602c556000602d5567016345785d8a0000602e556000602f55348015620008ea57600080fd5b50336000806101000a81548173ffffffffffffffffffffffffffffffffffffffff021916908373ffffffffffffffffffffffffffffffffffffffff16021790555062000ab7565b826025810192821562000978579160200282015b8281111562000977578251829080519060200190620009669291906200098b565b509160200191906001019062000945565b5b50905062000987919062000a12565b5090565b828054600181600116156101000203166002900490600052602060002090601f016020900481019282601f10620009ce57805160ff1916838001178555620009ff565b82800160010185558215620009ff579182015b82811115620009fe578251825591602001919060010190620009e1565b5b50905062000a0e919062000a43565b5090565b62000a4091905b8082111562000a3c576000818162000a32919062000a6b565b5060010162000a19565b5090565b90565b62000a6891905b8082111562000a6457600081600090555060010162000a4a565b5090565b90565b50805460018160011615610100020316600290046000825580601f1062000a93575062000ab4565b601f01602090049060005260206000209081019062000ab3919062000a43565b5b50565b610fc58062000ac76000396000f3fe608060405260043610610107576000357c0100000000000000000000000000000000000000000000000000000000900463ffffffff16806311bcd8301461010c57806313af403514610137578063148bea6b146101885780633f1887e91461020a578063409e22051461023557806345596e2e146102e95780635e377b51146103245780635ec01e4d1461034f57806374c1328a1461037a578063775a8f5e146104565780638a3a84a81461050a5780638da5cb5b146105355780638fcc9cfb1461058c578063abe2a16e146105c7578063b034d5aa146105f2578063d0bcfc0c1461061d578063e97dcb6214610648578063f0acd7d514610652578063fd330b261461067d575b600080fd5b34801561011857600080fd5b506101216106a8565b6040518082815260200191505060405180910390f35b34801561014357600080fd5b506101866004803603602081101561015a57600080fd5b81019080803573ffffffffffffffffffffffffffffffffffffffff1690602001909291905050506106ae565b005b34801561019457600080fd5b506101c1600480360360208110156101ab57600080fd5b8101908080359060200190929190505050610747565b604051808373ffffffffffffffffffffffffffffffffffffffff1673ffffffffffffffffffffffffffffffffffffffff1681526020018281526020019250505060405180910390f35b34801561021657600080fd5b5061021f61079a565b6040518082815260200191505060405180910390f35b34801561024157600080fd5b5061026e6004803603602081101561025857600080fd5b81019080803590602001909291905050506107a0565b6040518080602001828103825283818151815260200191508051906020019080838360005b838110156102ae578082015181840152602081019050610293565b50505050905090810190601f1680156102db5780820380516001836020036101000a031916815260200191505b509250505060405180910390f35b3480156102f557600080fd5b506103226004803603602081101561030c57600080fd5b8101908080359060200190929190505050610852565b005b34801561033057600080fd5b506103396108b2565b6040518082815260200191505060405180910390f35b34801561035b57600080fd5b506103646108b8565b6040518082815260200191505060405180910390f35b34801561038657600080fd5b506104406004803603602081101561039d57600080fd5b81019080803590602001906401000000008111156103ba57600080fd5b8201836020820111156103cc57600080fd5b803590602001918460018302840111640100000000831117156103ee57600080fd5b91908080601f016020809104026020016040519081016040528093929190818152602001838380828437600081840152601f19601f8201169050808301925050505050505091929192905050506108e4565b6040518082815260200191505060405180910390f35b34801561046257600080fd5b5061048f6004803603602081101561047957600080fd5b81019080803590602001909291905050506109a5565b6040518080602001828103825283818151815260200191508051906020019080838360005b838110156104cf5780820151818401526020810190506104b4565b50505050905090810190601f1680156104fc5780820380516001836020036101000a031916815260200191505b509250505060405180910390f35b34801561051657600080fd5b5061051f6109e9565b6040518082815260200191505060405180910390f35b34801561054157600080fd5b5061054a6109ef565b604051808273ffffffffffffffffffffffffffffffffffffffff1673ffffffffffffffffffffffffffffffffffffffff16815260200191505060405180910390f35b34801561059857600080fd5b506105c5600480360360208110156105af57600080fd5b8101908080359060200190929190505050610a14565b005b3480156105d357600080fd5b506105dc610a74565b6040518082815260200191505060405180910390f35b3480156105fe57600080fd5b50610607610a7a565b6040518082815260200191505060405180910390f35b34801561062957600080fd5b50610632610a80565b6040518082815260200191505060405180910390f35b610650610a86565b005b34801561065e57600080fd5b50610667610ef8565b6040518082815260200191505060405180910390f35b34801561068957600080fd5b50610692610f13565b6040518082815260200191505060405180910390f35b602e5481565b6000809054906101000a900473ffffffffffffffffffffffffffffffffffffffff1673ffffffffffffffffffffffffffffffffffffffff163373ffffffffffffffffffffffffffffffffffffffff16141561074457806000806101000a81548173ffffffffffffffffffffffffffffffffffffffff021916908373ffffffffffffffffffffffffffffffffffffffff1602179055505b50565b60268181548110151561075657fe5b90600052602060002090600202016000915090508060000160009054906101000a900473ffffffffffffffffffffffffffffffffffffffff16908060010154905082565b60275481565b6001816025811015156107af57fe5b016000915090508054600181600116156101000203166002900480601f01602080910402602001604051908101604052809291908181526020018280546001816001161561010002031660029004801561084a5780601f1061081f5761010080835404028352916020019161084a565b820191906000526020600020905b81548152906001019060200180831161082d57829003601f168201915b505050505081565b6000809054906101000a900473ffffffffffffffffffffffffffffffffffffffff1673ffffffffffffffffffffffffffffffffffffffff163373ffffffffffffffffffffffffffffffffffffffff1614156108af57806029819055505b50565b602b5481565b6000805a434244010101905060606108cf826109a5565b90508080519060200120600190049250505090565b60006060829050600080600090505b825181101561099a576001810183510360080260020a838281518110151561091757fe5b9060200101517f010000000000000000000000000000000000000000000000000000000000000090047f0100000000000000000000000000000000000000000000000000000000000000027f0100000000000000000000000000000000000000000000000000000000000000900460ff16028201915080806001019150506108f3565b508092505050919050565b606060206040519080825280601f01601f1916602001820160405280156109db5781602001600182028038833980820191505090505b509050816020820152919050565b602d5481565b6000809054906101000a900473ffffffffffffffffffffffffffffffffffffffff1681565b6000809054906101000a900473ffffffffffffffffffffffffffffffffffffffff1673ffffffffffffffffffffffffffffffffffffffff163373ffffffffffffffffffffffffffffffffffffffff161415610a715780602e819055505b50565b60295481565b602c5481565b602a5481565b662386f26fc10000341115610ef6576000349050600060268054905090506001810160288190555060288054811515610abb57fe5b066028036027819055506001602681818054905001915081610add9190610f19565b5033602682815481101515610aee57fe5b906000526020600020906002020160000160006101000a81548173ffffffffffffffffffffffffffffffffffffffff021916908373ffffffffffffffffffffffffffffffffffffffff16021790555081602682815481101515610b4d57fe5b90600052602060002090600202016001018190555081602c6000828254019250508190555060646029548302811515610b8257fe5b04602f8190555060646029548302811515610b9957fe5b0482039150606460508302811515610bad57fe5b04602a60008282540192505081905550606460508302811515610bcc57fe5b048203915081602b600082825401925050819055506000602f54141515610d4d576000671b9de674df070000905080602f541015610c85576000809054906101000a900473ffffffffffffffffffffffffffffffffffffffff1673ffffffffffffffffffffffffffffffffffffffff166108fc602f549081150290604051600060405180830381858888f19350505050158015610c6d573d6000803e3d6000fd5b50602f54602d60008282540192505081905550610d4b565b600081602f54811515610c9457fe5b04905060008090505b81811015610d48576000602f541115610d3b576000809054906101000a900473ffffffffffffffffffffffffffffffffffffffff1673ffffffffffffffffffffffffffffffffffffffff166108fc849081150290604051600060405180830381858888f19350505050158015610d17573d6000803e3d6000fd5b50602f54602d6000828254019250508190555082602f600082825403925050819055505b8080600101915050610c9d565b50505b505b602e5434101515610ef3576000602882811515610d6657fe5b06148015610d7657506000602b54115b15610e2357602681815481101515610d8a57fe5b906000526020600020906002020160000160009054906101000a900473ffffffffffffffffffffffffffffffffffffffff1673ffffffffffffffffffffffffffffffffffffffff166108fc602b549081150290604051600060405180830381858888f19350505050158015610e03573d6000803e3d6000fd5b50602b54602d600082825401925050819055506000602b81905550610ef2565b60006004610e2f6108b8565b811515610e3857fe5b06148015610e4857506000602a54115b15610ef157602681815481101515610e5c57fe5b906000526020600020906002020160000160009054906101000a900473ffffffffffffffffffffffffffffffffffffffff1673ffffffffffffffffffffffffffffffffffffffff166108fc602a549081150290604051600060405180830381858888f19350505050158015610ed5573d6000803e3d6000fd5b50602a54602d600082825401925050819055506000602a819055505b5b5b50505b565b60006025610f046108b8565b811515610f0d57fe5b06905090565b60285481565b815481835581811115610f4657600202816002028360005260206000209182019101610f459190610f4b565b5b505050565b610f9691905b80821115610f9257600080820160006101000a81549073ffffffffffffffffffffffffffffffffffffffff0219169055600182016000905550600201610f51565b5090565b9056fea165627a7a72305820e820956a4053e05549b4f3c9cb42ff2620d5d3ae1b274a81b97113bf006cc70e0029",
  "source": "pragma solidity >=0.4.21 <0.6.0;\n\ncontract Roulette {\n  address payable public owner;\n  string[37] public options = [\n    string(\"0\"), \"32\", \"15\", \"19\", \"4\", \"21\", \"2\", \"25\", \"17\", \"34\", \"6\", \"27\", \"13\", \"36\", \"11\", \"30\", \"8\", \"23\", \"10\", \"5\", \"24\", \"16\", \"33\", \"1\", \"20\", \"14\", \"31\", \"9\", \"22\", \"18\", \"29\", \"7\", \"28\", \"12\", \"35\", \"3\", \"26\"\n  ];\n\n  struct gamblerarray {\n    address payable etherAddress;\n    uint amount;\n  }\n\n  gamblerarray[] public gamblerlist;\n  uint public Gamblers_Until_Jackpot = 0;\n  uint public Total_Gamblers = 0;\n  uint public FeeRate = 5;\n  uint public Bankroll = 0;\n  uint public Jackpot = 0;\n  uint public Total_Deposits = 0;\n  uint public Total_Payouts = 0;\n  uint public MinDeposit = 100 finney;\n  uint Fees=0;\n\n  modifier onlyowner {\n    if (msg.sender == owner) {\n      _;\n    }\n  }\n\n  constructor() public {\n    owner = msg.sender;\n  }\n\n  function bytesToUInt(bytes memory _b) public returns (uint256){\n    bytes memory b = bytes(_b);\n    uint256 number;\n    for (uint i = 0; i < b.length; i++){\n      number = number + uint256(uint8(b[i]))*(2**(8*(b.length-(i+1))));\n    }\n    return number;\n  }\n\n  function random() public view returns(uint) {\n      uint source = block.difficulty + block.timestamp + block.number + gasleft();\n      bytes memory source_b = toBytes(source);\n      return uint(keccak256(source_b));\n  }\n\n  function toBytes(uint256 x) public pure returns (bytes memory b) {\n      b = new bytes(32);\n      assembly { mstore(add(b, 32), x) }\n  }\n\n  function spin() public view returns(uint) {\n    return random() % 37;\n  }\n\n  function enter() public payable {\n    if (msg.value > 10 finney) {\n      uint amount = msg.value;\n\n      // add a new participant to the system and calculate total players\n      uint list_length = gamblerlist.length;\n      Total_Gamblers = list_length + 1;\n      Gamblers_Until_Jackpot = 40 - (Total_Gamblers % 40);\n      gamblerlist.length += 1;\n      gamblerlist[list_length].etherAddress = msg.sender;\n      gamblerlist[list_length].amount = amount;\n\n      // set payout variables\n      Total_Deposits += amount;       \t  // update deposited amount\n      Fees = amount * FeeRate / 100;      // 5% fee to the owner\n      amount -= amount * FeeRate / 100;\n      Bankroll += amount * 80 / 100;      // 80% to the balance\n      amount -= amount * 80 / 100;\n      Jackpot += amount;                \t// remaining to the jackpot\n\n      // payout fees to the owner\n      if (Fees != 0) {\n        uint minimal = 1990 finney;\n        if(Fees < minimal)\n        {\n          owner.transfer(Fees);\t\t        // send fee to owner\n          Total_Payouts += Fees;          // update paid out amount\n        } else {\n        uint Times = Fees/minimal;\n        for (uint i = 0; i < Times; i++)  // send the fees out in packets compatible to EthVentures dividend function\n          if (Fees > 0) {\n            owner.transfer(minimal);\t\t  // send fee to owner\n            Total_Payouts += Fees;        // update paid out amount\n            Fees -= minimal;\n          }\n        }\n      }\n\n      if (msg.value >= MinDeposit) {\n        // payout to participants\n        if (list_length % 40 == 0 && Jackpot > 0) {\n          gamblerlist[list_length].etherAddress.transfer(Jackpot);  // send pay out to participant\n          Total_Payouts += Jackpot;               \t\t\t\t\t        // update paid out amount\n          Jackpot = 0;\t\t\t\t\t                               \t\t\t// jackpot update\n        } else {\n          // bytes32 myadd = bytes32(uint256(gamblerlist[list_length].etherAddress) << 96); list_length\n          if (random() % 4 == 0 && Bankroll > 0) {\n            // if the hashed length of your address is even\n            gamblerlist[list_length].etherAddress.transfer(Bankroll);        // send pay out to participant\n            Total_Payouts += Bankroll;               \t\t\t\t\t               // update paid out amount\n            Bankroll = 0;                      \t\t\t\t\t\t                   // bankroll update\n          }\n        }\n      }\n    }\n  }\n\n  //******************************************** OWNER\n  function setOwner(address payable new_owner) public onlyowner { // set new owner of the casino\n    owner = new_owner;\n  }\n  function setMinDeposit(uint new_mindeposit) public onlyowner {  // set new minimum deposit rate\n    MinDeposit = new_mindeposit;\n  }\n  function setFeeRate(uint new_feerate) public onlyowner {        // set new fee rate\n    FeeRate = new_feerate;\n  }\n}\n",
  "sourcePath": "/Users/macbookpro15/Facultate/blockchain/proiect/contracts/Roulette.sol",
  "compiler": {
    "name": "solc",
    "version": "0.5.0+commit.1d4f565a.Emscripten.clang"
  },
  "schemaVersion": "3.0.3",
  "updatedAt": "2019-05-09T11:03:34.004Z",
  "devdoc": {
    "methods": {}
  },
  "userdoc": {
    "methods": {}
  }
}